:020000040800F2
:10000000E00F0020090200082F0F0008370E00083B
:100010002D0F0008A10300082317000800000000AE
:10002000000000000000000000000000BD160008F5
:10003000A303000800000000E1150008BF16000837
:1000400023020008230200082302000823020008FC
:1000500023020008230200082302000823020008EC
:1000600023020008230200082302000823020008DC
:1000700023020008230200082302000823020008CC
:1000800023020008230200082302000823020008BC
:1000900023020008230200082302000823020008AC
:1000A000230200082302000823020008230200089C
:1000B000230200082302000823020008230200088C
:1000C000230200082302000823020008230200087C
:1000D000230200082302000823020008230200086C
:1000E00023020008230200082302000800F002F89F
:1000F00000F060F80AA090E8000C82448344AAF162
:100100000107DA4501D100F055F8AFF2090EBAE85F
:100110000F0013F0010F18BFFB1A43F0010318473B
:1001200080200000A020000010F8013B0A4413F0DA
:10013000030408BF10F8014B1D1108BF10F8015B44
:10014000641E05D010F8016B641E01F8016BF9D133
:10015000002D15D010F8014B03F00C030C2BA1EB74
:1001600004040ABF10F8013BA4EB8314A4EB03249E
:1001700005F1010314F8016B5B1E01F8016BF9D561
:10018000914238BF10F8013BD1D3704700230024BF
:1001900000250026103A28BF78C1FBD8520728BF97
:1001A00030C148BF0B6070471FB500F062F81FBD3B
:1001B00010B510BD00F0BAF81146FFF7F5FF01F0D9
:1001C000EBFA00F0D8F803B4FFF7F2FF03BC00F03D
:1001D000E1F800000B49D1F800C04A685CF8043B24
:1001E0001068184442F8040B8C4528BFA1F1DC0CC0
:1001F0008A4228BFA1F1DC02C1F800C04A6020F0A9
:1002000000407047780900200948804709480047A6
:10021000FEE7FEE7FEE7FEE7FEE7FEE7FEE7FEE7B6
:10022000FEE7FEE704480549054A064B7047000013
:1002300021170008ED000008E0090020E00F002071
:10024000E00B0020E00B00200B4910B5A1F17C026F
:100250000A4CC2E93712372106E000EB104342F89E
:100260002130074B00FB03400B1EA1F10101F4DC20
:1002700010BD0120E8E7000018090020E119D6664A
:10028000CD0D010002F0FF0343EA032242EA0242DD
:1002900000F02CB84FF0000200B513469446964685
:1002A000203922BFA0E80C50A0E80C50B1F1200189
:1002B000BFF4F7AF090728BFA0E80C5048BF0CC037
:1002C0005DF804EB890028BF40F8042B08BF704795
:1002D00048BF20F8022B11F0804F18BF00F8012B07
:1002E00070477047704770474FF000020429C0F014
:1002F000128010F0030C3FF4CFAFCCF1040CBCF132
:10030000020F18BF00F8012BA8BF20F8022BA1EBA9
:100310000C01FFF7C1BF5FEAC17C24BF00F8012BCD
:1003200000F8012B48BF00F8012B7047754600F01C
:100330002BF8AE4605006946534620F00700854677
:1003400018B020B5FFF76EFFBDE820404FF0000663
:100350004FF000074FF000084FF0000B21F00701AD
:10036000AC46ACE8C009ACE8C009ACE8C009ACE8F0
:10037000C0098D46704710B50446AFF30080204693
:10038000BDE81040FFF71FBF0048704780090020FC
:100390007047000001491820ABBEFEE726000200AE
:1003A000FEE7704772B6FEE770B5044600F008F944
:1003B0000546601C02D004480078044400F000F9AF
:1003C000401BA042FAD370BD340800202DE9F84F3D
:1003D000DFF8B891002409F1040A0AF1040B23465E
:1003E0000F270BF1040EC9E00125A5402A40AA42BF
:1003F0007DD1674ED1F804C0ACEB0608B44532D0CD
:1004000014DCBCF1030F3AD009DCBCF1000F2AD098
:10041000BCF1010F1CD0BCF1020F31D11DE0BCF1C9
:10042000110F17D0BCF1120F2AD119E0B8F5881FAF
:1004300019D006DCB8F5803F15D0B8F5801F1FD164
:1004400011E0B8F5001F0ED0B8F5041F18D10AE06E
:10045000CB6815E0CB681B1D12E0CB6808330FE0BA
:10046000CB680C330CE08B682BB1012B4FF00803E9
:1004700003D0456104E0042302E0056100E00023AD
:10048000FF2A01D8064601E000F104064FEA840580
:1004900001D9A5F12005D6F8008007FA05FC28EA65
:1004A0000C0803FA05F548EA0508C6F800804D680F
:1004B000ED0062D5374DAE6946F00106AE61AD691B
:1004C00024F0030605F001050095334D06EB050CFD
:1004D000DCF80850A607360F07FA06F825EA0805E3
:1004E000DFF8B880404503D14FF0000817E044E042
:1004F000DFF8AC80404502D14FF001080FE0DFF893
:10050000A480404502D14FF0020808E0DFF898804F
:10051000404502D14FF0030801E04FF0040808FA0B
:1005200006F848EA0508CCF808804D68D9F800605C
:10053000ED034D4601D5164300E096432E604D680D
:10054000DAF80060AD03554601D5164300E0964346
:100550002E604D68DBF80060ED025D4601D5164364
:1005600000E096432E604D68DEF80060AD027546EF
:1005700001D5164300E096432E60641C0D682A46A0
:10058000E5407FF431AFBDE8F88F00000004014082
:10059000000011100010024000000140000801405E
:1005A000000C014000100140001401408068084028
:1005B00000D0012070470AB1016170470904FBE7D0
:1005C00001488068704700003408002002488168B4
:1005D000027811448160704734080020074810B544
:1005E000016841F010010160032000F067F80F205E
:1005F00000F006F800F024F8002010BD00200240B2
:1006000070B50D4D04464FF47A712878B1FBF0F0C7
:100610000A490968B1FBF0F000F0F9FB48B9102C69
:1006200007D200222146501E00F028F800206C60FE
:1006300070BD012070BD000034080020400800207B
:100640000C4808B5816941F001018161816901F0BF
:1006500001010091C16941F08051C161C06900F0A0
:10066000805000900448416821F0E06141F0007141
:10067000416008BD0010024000000140F0B40E4B84
:100680001B680C46C3F30223C3F10705042D00D9F0
:100690000425191D072901D2002300E0DB1E0126D5
:1006A00006FA05F1491E214099409E40761E1640EB
:1006B0003143F0BC01F036B80CED00E0064900F023
:1006C000070208684FF6FF03184040EA0220034A79
:1006D00010430860704700000CED00E00000FA05D0
:1006E0002DE9F0470F46050061D0434E306800F019
:1006F0000700B84209D2306820F007003843306064
:10070000306800F00700B84251D128683B4C81079F
:1007100012D5400703D5606840F4E0606060287837
:10072000000703D5606840F4605060606068A968A5
:1007300020F0F000084360602878C00728D068687F
:10074000012810D02168022810D0890700292EDA4C
:10075000616821F0030101436160FFF731FF8046CA
:1007600041F288390DE021688903EFE78901EDE75F
:10077000FFF726FFA0EB0801494502D90320BDE899
:10078000F0876068696800F00C00B0EB810FEFD172
:10079000306800F00700B8420BD9306820F007003D
:1007A00038433060306800F00700B84201D00120C3
:1007B000E5E72878400705D56068E96820F4E0603F
:1007C000084360602878000706D56068296920F42E
:1007D000605040EAC100606000F018F86168084AA3
:1007E000C1F30311515CC84006490860064800681F
:1007F000FFF706FF0020C2E7002002400010024081
:100800008F210008400800203808002012A185B080
:100810000FC98DE80F0014A0144A006804905168B5
:10082000134801F00C03042B10D0082B0ED1C1F398
:100830008343C9031DF803000AD5516804AAC1F314
:100840004041515C0A4A5043B0FBF1F005B070479B
:1008500008494843FAE700000203040506070809AF
:100860000A0B0C0D0E0F10100102000000100240C8
:1008700000127A0000093D002DE9F84F040070D005
:100880002078C04DC00749D06868C0F381000128B6
:1008900007D06868C0F38100022809D16868C003E6
:1008A00006D52868800339D560680028E7D035E090
:1008B0006068B0F5803F0BD010B1B0F5A02F11D01B
:1008C000286820F480302860286820F4802002E026
:1008D000286840F480302860606890B1FFF770FEAF
:1008E00006460AE0286840F480202860F0E700BF50
:1008F000FFF766FE801B642873D828688003F7D54D
:100900000CE0FFF75DFE064605E000BFFFF758FE6E
:10091000801B6428F0D828688003F7D420789A4E8A
:1009200080074FF001094FF0000839D5686810F0D2
:100930000C0F07D06868C0F38100022809D16868ED
:10094000C00306D42868800714D52069012808D17F
:1009500010E02069B0B1C6F80090FFF731FE0746FD
:1009600005E00AE1FFF72CFEC01B0228C4D8286866
:100970008007F7D52868616920F0F80040EAC100D7
:1009800028600DE0C6F80080FFF71AFE074604E075
:10099000FFF716FEC01B022823D828688007F7D46B
:1009A000207800072CD57948A169D9B1C0F800900A
:1009B000FFF706FE074604E0FFF702FEC01B022811
:1009C0000FD8686A8007F7D571484FF4FA5100686C
:1009D000B0FBF1F0009000BF0098411E0091FAD2E8
:1009E0000EE080E0C0F80080FFF7EAFD074604E073
:1009F000FFF7E6FDC01B022875D8686A8007F7D4A8
:100A00002078400760D5E8690027C00008D4E8696D
:100A100040F08050E861E869012700F080500090C4
:100A20005C480168C90513D40168834641F48071AC
:100A30000160FFF7C5FD824606E000BFFFF7C0FD7D
:100A4000A0EB0A0064284ED8DBF80000C005F5D5FD
:100A5000E06801280AD008B1052813D0286A20F0E0
:100A600001002862286A20F0040002E0286A40F0B1
:100A700001002862E06841F2883B98B1FFF7A0FDD1
:100A800082460BE0286A40F004002862EEE700BFCF
:100A9000FFF796FDA0EB0A0159455AD8286A80074E
:100AA000F6D50CE0FFF78CFD824605E0FFF788FDE8
:100AB000A0EB0A0159454CD8286A8007F6D41FB12B
:100AC000E86920F08050E861E06988B36968C1F3A3
:100AD0008101022944D00228C6F8608004D0FFF7C3
:100AE0006FFD044638E034E0FFF76AFD074604E096
:100AF000FFF766FDC01B02282BD828688001F7D4B9
:100B0000206AB0F5803F05D16868A16820F4003004
:100B100008436860D4E908010843696821F4741146
:100B200008436860C6F86090FFF74AFD044606E097
:100B300025E000BFFFF744FD001B022809D8286804
:100B40008001F7D51BE000BFFFF73AFD001B02282C
:100B500002D90320BDE8F88F28688001F4D40EE0A4
:100B60000128F7D06868226A00F48031914204D1EC
:100B7000616A00F47010884201D00120EAE7002089
:100B8000E8E70000001002400000424280044242B8
:100B9000400800200070004070B5040009D0606A71
:100BA000002540B125616561A56294F8510040B10E
:100BB0000CE0012070BD6068B0F5827FF4D0E56183
:100BC000F2E784F85050204600F040F8022084F804
:100BD00051002068016821F040010160A08821894E
:100BE00000F4827001F404410843A18901F400611A
:100BF0000843217C01F002010843217D01F001013D
:100C00000843218B01F400710843217F01F0380172
:100C1000084394F8201001F080010843218D01F46D
:100C20000051084321680860A069042101EA1040CE
:100C3000216848602068C16921F40061C16165656F
:100C4000012084F85100002070BD000000B585B07F
:100C50000021009101910291039100680F4988429F
:100C60001AD10F48816941F480518161816901F491
:100C700080510491816941F0040181618069694674
:100C800000F004000490A0200090022001900320B6
:100C900003900448FFF79AFB05B000BD0030014007
:100CA00000100240000801402DE9F84F044690F87A
:100CB000500000271D461646894601280DD04FF0EA
:100CC000010B84F850B0FFF77BFC804694F851008C
:100CD000BA46012804D0022793E00220BDE8F88F2D
:100CE000B9F1000F73D0002E71D0032084F85100A9
:100CF000C4F854A0C4F83090A686E686C4F838A09C
:100D0000A4F83CA0A4F83EA0C4F844A0C4F840A0B5
:100D1000A068B0F5004F09D12068016821F04001BA
:100D200001602068016841F4804101602068016829
:100D3000490603D4016841F040010160E068B0F564
:100D4000006F606803D030B3012E24D041E008B1B9
:100D5000012E1CD1206B21680088C86006E0206845
:100D60008168890709D5216B0988C160206B801CC7
:100D70002063E08E401EE08609E0FFF721FCA0EB37
:100D80000800A84202D3681C01D031E07DB3E08E98
:100D90000028E4D120E0206B21680078087306E089
:100DA00020688168890709D5216B09780173206B58
:100DB000401C2063E08E401EE0860AE0FFF700FC46
:100DC000A0EB0800A84203D3681C02D010E017E093
:100DD0006DB1E08E0028E3D142462946204600F05E
:100DE00000FC08B120206065A06818B106E0FFE7AC
:100DF000032706E02068C16880680090606D00B13C
:100E0000012784F851B084F850A0384666E710B541
:100E1000401EB0F1807F01D3012010BD4FF0E024CF
:100E200060610F21601700F07DFC0020A0610720A9
:100E30002061002010BDFEE72DE9F04186B00024BE
:100E400024480094019402940394816941F01001B4
:100E50008161816901F010010491816941F02001F3
:100E60008161816901F020010491816941F00401EF
:100E70008161816901F004010491816941F00801F7
:100E800081618069DFF8508000F008004FF46067EE
:100E90000490002239464046FFF78DFB0125CDE93D
:100EA0000054022669460D480296FFF78FFA009714
:100EB0000396CDE9015469464046FFF787FA680278
:100EC0008DE8310069460648FFF780FA06B0BDE8B4
:100ED000F081000000100240000C014000080140B9
:100EE00000100140104810B50E4901604FF48271A6
:100EF000416000218160C1604FF400720161C0E96E
:100F000005122022C0E90721416281620A21C162E3
:100F1000FFF742FE002803D0BDE81040FFF742BAB9
:100F200010BD00000030014044080020FEE7FEE74D
:100F300070B5002404F1B000C0B2002100F000F947
:100F40000021022000F0FCF80021102000F0F8F849
:100F500000250121002000F0F3F86D1CEDB2802D7A
:100F6000F7D3641CE4B2082CE4D370BD10B50021A3
:100F70008D2000F0E5F80021142000F0E1F80021B8
:100F8000BDE81040AF2000F0DBB8000070B5444D64
:100F90004FF48064002221462846FFF70CFBC8204E
:100FA000FFF702FA012221462846FFF704FB002141
:100FB000AE2000F0C5F80021022000F0C1F80021A9
:100FC000102000F0BDF80021402000F0B9F8002109
:100FD000812000F0B5F80021CF2000F0B1F8002109
:100FE000A12000F0ADF80021C82000F0A9F80021F0
:100FF000A62000F0A5F80021A82000F0A1F800210B
:101000003F2000F09DF80021D32000F099F8002146
:10101000084600F095F80021D52000F091F8002155
:10102000802000F08DF80021D92000F089F80021FF
:10103000F12000F085F80021DA2000F081F800218D
:10104000122000F07DF80021DB2000F079F800216B
:10105000402000F075F80021202000F071F80021F8
:10106000022000F06DF800218D2000F069F80021C9
:10107000142000F065F80021A42000F061F80021A0
:10108000A62000F05DF80021AF2000F059F8002103
:10109000AF2000F055F8BDE87040FFF749BF0000F1
:1010A000000C014010B50446B031C8B2002100F078
:1010B00047F8A41CC4F3031040F01000002100F016
:1010C0003FF804F00F00BDE81040002100F038B8F0
:1010D00070B5203A0024D5B27F2802D90020891C9F
:1010E000C9B2491CC9B2FFF7DDFF074905EB45004E
:1010F00001EB40050121285D00F022F8641CE4B2F8
:10110000062CF7D370BD0000671F00082DE9F041E1
:1011100017460E46044600250CE031462046FFF7F0
:10112000D7FF0834E4B2782C02D90024B61CF6B2FA
:101130006D1CEDB27A5D002AEFD1BDE8F0810000B0
:1011400073B5124C4FF4006509B1012200E0002292
:1011500029462046FFF72FFA4FF400760022314649
:101160002046FFF728FA4FF47A73012269460848AF
:10117000FFF79AFD012231462046FFF71CFA0122B3
:1011800029462046FFF717FA7CBD0000000C0140FD
:10119000440800202DE9F05F00277F24394E814666
:1011A0004FF0050B01291AD0B9F1000F1CD0B9F18D
:1011B000010F1BD01825706AE84205D55A46052153
:1011C000002000F093F974620024B046D8F824009F
:1011D00000280DDA4742601DC1B200200BE07462A6
:1011E0007F20B462BDE8F09F0825E4E71025E2E720
:1011F000611DC9B2C0B2FFF755FFFEB2DFF888A08B
:1012000018E000BFD8F8240030447E2814DA04FB2C
:101210000560B9F1000F2CD0B9F1010F2CD0B9F154
:10122000030F2CD018496031085C0121FFF788FFBB
:10123000761CF6B2AE42E5DB641CE4B2022CC5D3E8
:10124000D8F82400444628445A46052100F04EF9B7
:10125000606A5A462844062100F048F9A16AA1EBC9
:101260000B000849A0622831081F00F06BFA606A81
:10127000B8E71AF80000D8E703491031D4E702496B
:101280003031D1E700000020571D00082DE9F0475C
:10129000204C01260025206918271830B0F1FF3FA7
:1012A00009DC7F202061FEF795FF032190FBF1F21E
:1012B00001FB120020702069002803DA45422178E2
:1012C000002001E0C0B22178FFF7ECFEA046DFF875
:1012D0004890BC190FE000BFD8F8100028447E28C1
:1012E0000BDABD4202DA19F8050000E00020012106
:1012F000FFF726FF6D1CAC42EEDCD8F81410891BFA
:10130000C8F81410BDE8F04702491431081F00F076
:1013100019BA0000000000203F1C00082DE9F04130
:1013200000260A4F3446E1B20020FFF7BBFE00253D
:10133000B85D0121761CFFF703FF6D1C802DF7DBE4
:10134000641C082CEFDBBDE8F08100005000002099
:101350002DE9F041174EB078401CC0B2B07005289E
:1013600001D2002102E00A2801D2012131620A21C2
:10137000B0FBF1F201FB12000F4FB0700024601DB2
:10138000C1B21020FFF78EFE5FF00005316A05EB59
:10139000041007EBC111085C0121FFF7D1FE6D1CA1
:1013A000EDB2102DF2D3641CE4B2022CE7D3BDE8F9
:1013B000F081000000000020571C00082DE9F047D4
:1013C000484C0A220025216B0826491C91FBF2F3A8
:1013D00002FB13122946226301280BD020462779ED
:1013E000C36AC0784FF0050804F5016C47B1012FBE
:1013F00012D020E0E1622171E6700020BDE8F087A4
:1014000092FBF8F608FB1622AAB95CF82020401ED1
:101410001A44E262E0700EE092FBF8F708FB172234
:101420004AB95CF82020401C9A1AC0B2E262E0700F
:10143000082800DDE670E06A1F2804DB0120207127
:101440001F20E06210E0002802DC2171E1620EE062
:1014500007280CDD0F2801DC012508E0172801DC36
:10146000022504E01F2801DC032500E00425DFF845
:1014700078800026C5F1040909EB0600C1B21020EE
:10148000FFF710FE5FF0000707EB06116163E06AEB
:10149000C21700EB527222F00702801A00EB4002E2
:1014A00008EB0210405C0121FFF74AFE7F1CFFB2EF
:1014B000102FE9D3761CF6B2032EDDD3207928B99C
:1014C0001022C5F10701104600F010F8207901281C
:1014D00005D11022C5F10301104600F007F8E06ABB
:1014E0008CE7000000000020E71D000870B50546ED
:1014F00016460024C9B2C0B2FFF7D4FD07E0281990
:101500007F2806D801210020FFF71AFE641CB44290
:10151000F5D370BD2DE9F041052740F2552607218E
:101520000020FFF7BFFDDFF84480114C0025A068C4
:101530002844B0FBF6F106FB110118F80100012167
:10154000FFF7FEFD6D1CEDB27F2DF0D3E06838444F
:10155000E060A068B04201D90020A060BDE8F04181
:1015600003490C31081F00F0EDB8000044190008D1
:10157000000000202DE9F0410025134C0220134EFD
:101580002F46E06394F83C103420FFF78BFDA763EF
:10159000705D607101216D1CFFF7D2FDA06B401CD6
:1015A000A0631828F4DBE06B401CE0630528E9DB4E
:1015B00007A203210A20FFF7A9FDBDE8F04103219E
:1015C00005A25620FFF7A2BD00000020991B0008CD
:1015D00047414D45000000004F56455200000000B5
:1015E000704738B50B46009204460022802100F077
:1015F00009F8002804D0606D40F0200060650320E9
:1016000038BD00002DE9F8431E4691468846044641
:10161000089DFEF7D5FF401B351AFEF7D1FF0746A0
:1016200025480068C0F3CB30684338E0701C37D0E1
:10163000FEF7C6FFC01BA84203D215B1009860B3E5
:101640002CE02068416821F0E00141606068B0F55D
:10165000827F0BD1A068B0F5004F02D0B0F5806F4B
:1016600004D12068016821F040010160A06AB0F552
:10167000005F09D12068016821F4005101602068F1
:10168000016841F400510160012084F851000020FC
:1016900084F850000320BDE8F8830025401E009028
:1016A0002068816838EA010004D000214945BDD195
:1016B0000020F0E70121F9E7400800207047FEF71D
:1016C00085BF30B58FB028216846FEF7E3FD1421B1
:1016D0000AA8FEF7DFFD01210804CDE9001000246F
:1016E000029402250491CDE907504FF4E0100990CF
:1016F0006846FFF7C1F808B172B6FEE70F20CDE9E2
:101700000A054FF48060CDE90C4002210AA80E942E
:10171000FEF7E6FF002801D072B6FEE70FB030BD3D
:101720007047FEE70907090E002804DB00F1E020FE
:1017300080F80014704700F00F0000F1E02080F8FE
:10174000141D7047026809688A4202DDA2F1010295
:1017500002E005DA02F1010202604FF00100704779
:101760004FF000007047000010B500240121084828
:10177000FEF71CFF012806D04FF400710548FEF764
:1017800015FF10B102E0012400E00224204610BD44
:1017900000080140001001401FB5FEF71FFFFFF7D2
:1017A00090FFFFF749FBFFF79DFBFFF7EFFBFFF70C
:1017B000DDFBFFF7BDFB5EA10026D1E90001CDE90D
:1017C00000015BA0B046D0E90010CDE90210FFF7A0
:1017D000A5FD594D4FF4007421462846FEF7E6FE5C
:1017E0000128F9D0FFF7A4FB0A25544C4FF47A796D
:1017F00020E000BFFFF7BEFEFFF7B6FF0646022857
:10180000F8D1D4E91201814200DCE0644FF0000815
:101810004746302205216846C4F84880FEF732FD6D
:1018200067640121206CFFF7B5FC0120FFF7C6FDBE
:10183000FFF77EFBA06C401C90FBF9F7A0640A2F19
:1018400000DD0A2704216B4609E000BF90FBF5F29A
:1018500005FB120290FBF5F030325A54491E002865
:10186000F4D1042102ABE06C09E000BF90FBF5F27B
:1018700005FB120290FBF5F030325A54491E002845
:10188000F4D1606C10B9FFF76FFF0646FFF742FE18
:10189000FFF7FCFC0021206CFFF77CFC824628A2AD
:1018A000FF210220FFF732FC02AAFF211C20FFF7D4
:1018B0002DFC6A46FF215020FFF728FC606C0028B1
:1018C0002DDC012E2BD0FFF743FD206C60B30128E7
:1018D0002CD0182050445FEA000B0BD5FEF77AFCA1
:1018E000C11700EB917121F00301401A012120641E
:1018F000FFF750FC606C102809DAAAF110001028DC
:1019000003D9ABF11000102801D84FF00108C7F13E
:101910000F00FEF749FDB8F1010F8BD16AE70020F7
:10192000FFF74CFD6064D0E70820D3E71020D1E733
:101930003030303030000000001001400000002046
:1019400048493A00C8C8C828282808C8C80808084C
:10195000080808080808080808480808C8C8C80887
:1019600038380808080808484808080808080828F7
:1019700008484848080808282808080808080808E7
:1019800008C80808080808080848080808080808D7
:101990003838080808080808080808080848082807
:1019A0002808484808080808080808080808080817
:1019B00028080808083838086808080808080828A7
:1019C00008080808080808480848480808080808D7
:1019D00008484808080808080808680808080808A7
:1019E000080808080828080808080808C8C80809D6
:1019F00008080808083838080828080908080808E6
:101A00000808082828080808090808080808080815
:101A100008686808C9C8C8080808C8080808082865
:101A20002908080808080808080808084849080894
:101A30000808080808080808086868080828280826
:101A400008080808080868680808C8C808080808D6
:101A50000808080828280828080808080828282846
:101A600008084808383808080808C8080808080896
:101A7000C8C8C828282808C8C808080808080808C6
:101A80000808080848480808C8C8C80838380808B6
:101A90000808084848080808080828280848484846
:101AA00008080828280808080808080808C80808B6
:101AB000080C06024242060C0808080838380818C4
:101AC000181010101010181808480828280848483E
:101AD0000808080808080808080808282808080846
:101AE0000838386868080808080808280808080836
:101AF0000808084808484808080808080848480826
:101B00000808080808686808080808080808080895
:101B100028280808080808C8C8C8080808080808C5
:101B20002838380808280808080808080808282855
:101B30002808080808080808080808080868680845
:101B4000C8C8C8080808C8080808082828080808D5
:101B5000080C04060202060C4C480808080C04068F
:101B60000202060C0C6868082828280808080808DB
:101B7000086868680808C8C8080808080808080845
:101B80002828282808080808082828280808482895
:101B9000383808080808C80808FCFFFFFFFFFF3FA7
:101BA0003F3F3F0F1F3FFFFFFF3F3FFFFFFFFFFF95
:101BB000FCFFFFFFFFFF00007E7E7E787C7E7F7F44
:101BC0007F7E0000FFFFFFFFFF3FFFFFFFFFFFFCE7
:101BD000FCFCFCFCFCFCFCFCFCFCFCFFFFFFFFFF36
:101BE0003F30383C3E3F3F7CF0F0F0F0F0F0F0E06A
:101BF000C0C0C0C0C0C00000000000000080FF7F67
:101C00001F0F070707070703030300000080C0C07A
:101C1000F0F8F8F8CF7FFEFCF8F8F0C08000000084
:101C200000000000000003030303030303070F1F6A
:101C30001F7FFFFFFFFFFFFEFCFCFC7C6C6C0C4079
:101C400040407010505058484E43434343434F4E1A
:101C50004C485858706040E080000080C0E0FEFFB3
:101C6000FFFFBF3F3F1F00070F1FFFFF3F1F3F3F0B
:101C70002F03010000000000000000000000000031
:101C80000000000000000000000000000000000054
:101C90000000000000000000000000000000000044
:101CA0000000000000000000000000000000000034
:101CB0000000000000000000000000000000000024
:101CC0000000000000000000000000000000000014
:101CD00000000000000000E080000080C0C0FEFFA7
:101CE000FFFFBF3F3F1F00030F1F3F7F7F3FFFFFEF
:101CF0000F070100000000000000000000000000CD
:101D000000000000000000000000000000000000D3
:101D100000000000000000000000000000000000C3
:101D200000000000000000000000000000000000B3
:101D300000000000000000000000000000000000A3
:101D40000000000000000000000000000000000093
:101D500000000000000000F0F000FFFF00F0F003C2
:101D60000786FFFF060301F0F0FFFFFF00F8F8F021
:101D7000F020FFFFFFF0F80787FFFFFF0687030350
:101D80008786FFFFFF8703F0E000FFFE80FC00FC7A
:101D9000FE00FFFF00F8F000FE80FEFFFE78FC135F
:101DA0001706FFFF011010133704FFFF080F17106D
:101DB0001001FFFF031311F0E000FFFE00F000C070
:101DC00000FFFE603C8000007CC0FEFF00F0F84396
:101DD0004786FFFF26A3A02704FFFF0008FF882FE8
:101DE0000000FFFF062321000000000000000000AB
:101DF00000000000000000E08000000080C0C0FE85
:101E0000FFFDBFAF2F2F0E03070F1FFFBF1F3FFFA9
:101E10008F0700010000000000000000000000002B
:101E200080808080808000F0C0808080C0E0E0FF03
:101E3000FFFE5FD71717070103070F7F5F0F1F7F95
:101E400047030000000000000000000000000080C8
:101E5000C040C0C0C0C080F8E0C0C0C0E0F0F0FF2B
:101E6000FFFF2F6B0B0B03000103073F2F070F3FF3
:101E7000230100000000000000000000000000C07E
:101E8000E0A0E0E0E0E0C07CF0E0E0E0F0F8F8FFA7
:101E9000FFFF1735050501000001031F1703071F8A
:101EA000110000000000000000000000000000E041
:101EB000F0D0F0F0F0F0E03E78F0F0F0F8FCFCFF4D
:101EC000FF7F0B1A020200000000010F0B01030F3D
:101ED000080000000000000000000000000000F00A
:101EE000F8E8F8787878701F3C78F8F8FCFEFEFF88
:101EF0007F3F050D010100000000000705000107FC
:101F0000040000000000008000000000000000F855
:101F1000FCF4FCBCBCBC380F1E3C7CFCFE7FFFFF0D
:101F20003F1F020600000000000000030200000343
:101F300002000000000000C000000000008080FCE3
:101F4000FEFA7E5E5E5E1C070F1E3EFE7F3F7FFF39
:101F50001F0F01030000000000000001010000014C
:101F60000100000000000000000000000000000070
:101F70002F000000000700070000147F147F1400EA
:101F8000242A7F2A1200626408132300364955224E
:101F90005000000503000000001C22410000004129
:101FA000221C000014083E08140008083E0808001F
:101FB0000000A06000000808080808000060600039
:101FC00000002010080402003E5149453E00004236
:101FD0007F4000004261514946002141454B31009C
:101FE0001814127F10002745454539003C4A4949DD
:101FF0003000017109050300364949493600064998
:1020000049291E0000363600000000563600000048
:102010000814224100001414141414000041221466
:102020000800020151090600324959513E007C1254
:1020300011127C007F49494936003E41414122004E
:102040007F4141221C007F49494941007F0909091C
:1020500001003E4149497A007F0808087F0000419D
:102060007F4100002040413F01007F0814224100D1
:102070007F40404040007F020C027F007F04081038
:102080007F003E4141413E007F09090906003E4173
:1020900051215E007F09192946004649494931000E
:1020A00001017F0101003F4040403F001F204020D0
:1020B0001F003F4038403F006314081463000708C6
:1020C00070080700615149454300007F414100000D
:1020D000552A552A55000041417F000004020102A3
:1020E0000400404040404000000102040000205431
:1020F000545478007F484444380038444444200015
:10210000384444487F00385454541800087E09016C
:10211000020018A4A4A47C007F08040478000044F2
:102120007D4000004080847D00007F102844000036
:1021300000417F4000007C04180478007C080404FF
:102140007800384444443800FC242424180018241F
:102150002418FC007C08040408004854545420004F
:10216000043F444020003C4040207C001C20402094
:102170001C003C4030403C004428102844001CA077
:10218000A0A07C004464544C44141414141414008F
:102190000000000000000001020304060708090017
:1021A000C0210008000000204408000028010008A9
:1021B000B8240008440800209C0700008C01000897
:1021C0009006000000080001527F0452A00CA114E8
:1021D000012A011004E0F0300120090000F0F0C0F5
:1021E000C0F0F0084005B0B070601823F0E0102295
:1021F00030032006E000E0E09001011648000433BF
:1022000080800001D031F3F73636F6E600F0F707AC
:10221000C1C13737F0C007C7E0303737E0C0030728
:1022200006F6F7B3B0B0F7E700F7F70007F7F003EB
:10223000E3F43434F4E47704132D10100C04141474
:10224000121111111011121212141C100010070F8C
:102250000F0C0C0F070721032107300803070C0C94
:102260000C07031B10080101010E0E000723630772
:102270000720052A5D04111680C060A0A0A09088E8
:10228000888C889090B0A0C0241340400351011561
:102290008B7006FCFC9C9CFC01259601226C013590
:1022A0001F3A805952080125C932FF0130047F7F4F
:1022B0004F01021F0FF435FB213379061804FEFE8F
:1022C000FE3A36E0E18004F0F8F01E051101100638
:1022D000FFF8F8E0E01A1006C0E0F8F8F839417E9F
:1022E000080724FFFF18083838436004FFFF016225
:1022F00011042004FCFE048D18050C0C8F83BD40D6
:102300000800809F3F7F70709E211FF90190090394
:10231000070F1F1F7F7FFF010806287F7F1F1707FA
:102320004320060103070707B3130303893405039A
:10233000070E0C0C34081F3F20FFFF201F3E411EDC
:10234000211F6D780310078282820202220120067B
:102350000202028282461008FF9F9F070701014B7D
:10236000255111172302C205111E212B20043232E0
:10237000322BD202BE30040242422519C819BC19C0
:10238000B02005111101010D280500013111D613EE
:102390000D0D1313101F01300510000D0101111355
:1023A0002D3903100AD0FF901020A4BFA4E404FE2E
:1023B000201803040F10040300FF0003804F2A0AB3
:1023C0000F0A2A4FB80C0F101060028C002494CC16
:1023D000A596C48C14245803280E04047E012010F2
:1023E00008FC4224081522D6DD780339711005F85F
:1023F000898E88013978FD51041404402018850421
:1024000005134080403FF6200AF808080CCA4948E6
:1024100048C8480912161D5803121F1C121F430EEC
:10242000327F9A040B1B3636F5080F1260F807004E
:10243000FC04C434858684F48484970009144030F5
:102440000F01FF00024C7F51411202450B1104FCA9
:102450005531C21B1F08CD0B1104088D05C4400C5B
:102460000913242425262424243CD7031007403CA8
:1024700003FF097F020E1189B703080D1380FC9634
:10248000E584FC0008C8494AC83F267F79040ACF82
:1024900080601F00003F4040784052010452030416
:1024A0005204041E0529081E062D085207207D101F
:0824B0000700040024F4000001
:04000005080000ED02
:00000001FF
